:020000040800F2
:10400000FFFF0120D1A900085D7D00085F7D000849
:10401000797E00087B7E00087D7E0008000000009D
:10402000000000000000000000000000056A000819
:104030007F7E000800000000996A00084F7D00089C
:1040400015AA000815AA000815AA000815AA000854
:1040500015AA000815AA000815AA000815AA000844
:1040600015AA000815AA0008BDED000885BD0008C6
:1040700015AA0008EDBD0008B9BD0008E1BD0008A3
:10408000817E000879BD000815AA000815AA00085D
:1040900015AA000815AA000815AA000815AA000804
:1040A00015AA000815AA000815AA000815AA0008F4
:1040B00015AA000815AA000815AA00085DBD000889
:1040C00069BD000891BD00089DBD0008A926010832
:1040D00015AA000815AA000815AA000809EF00088B
:1040E000AD3E010815AA000815AA000815AA000887
:1040F00015AA0008E5F0000815AA0008ADBD0008E3
:1041000015AA000815AA000815AA000815AA000893
:1041100015AA000815AA000815AA000899060108A2
:1041200015AA000815AA000815AA000815AA000873
:1041300015AA000815AA000815AA000815AA000863
:1041400015AA000815AA000815AA000835CA000813
:1041500015AA000815AA0008C5ED0008C1ED000861
:10416000C5BD0008D1BD000815AA000815AA0008A1
:1041700015AA000815AA000815AA000815AA000823
:0841800015AA000815AA0008A9
:1041880081F0004102E000BF83F0004330B54FEA00
:1041980041044FEA430594EA050F08BF90EA020F6D
:1041A8001FBF54EA000C55EA020C7FEA645C7FEA00
:1041B800655C00F0E2804FEA5454D4EB5555B8BF23
:1041C8006D420CDD2C4480EA020281EA030382EA94
:1041D800000083EA010180EA020281EA0303362D26
:1041E80088BF30BD11F0004F4FEA01314FF4801CF9
:1041F8004CEA113102D0404261EB410113F0004F0B
:104208004FEA03334CEA133302D0524263EB4303C1
:1042180094EA050F00F0A780A4F10104D5F1200E5F
:104228000DDB02FA0EFC22FA05F2801841F10001BA
:1042380003FA0EF2801843FA05F359410EE0A5F18E
:1042480020050EF1200E012A03FA0EFC28BF4CF0BF
:10425800020C43FA05F3C01851EBE37101F0004575
:1042680007D54FF0000EDCF1000C7EEB00006EEB82
:104278000101B1F5801F1BD3B1F5001F0CD349080C
:104288005FEA30004FEA3C0C04F101044FEA445263
:1042980012F5800F80F09A80BCF1004F08BF5FEAEA
:1042A800500C50F1000041EB045141EA050130BDCA
:1042B8005FEA4C0C404141EB010111F4801FA4F16D
:1042C8000104E9D191F0000F04BF01460020B1FAC2
:1042D80081F308BF2033A3F10B03B3F120020CDAFA
:1042E8000C3208DD02F1140CC2F10C0201FA0CF0D8
:1042F80021FA02F10CE002F11402D8BFC2F1200C3D
:1043080001FA02F120FA0CFCDCBF41EA0C019040F2
:10431800E41AA2BF01EB0451294330BD6FEA04043B
:104328001F3C1CDA0C340EDC04F11404C4F1200226
:1043380020FA04F001FA02F340EA030021FA04F338
:1043480045EA030130BDC4F10C04C4F1200220FA8F
:1043580002F001FA04F340EA0300294630BD21FACD
:1043680004F0294630BD94F0000F83F4801306BF93
:1043780081F480110134013D4EE77FEA645C18BF87
:104388007FEA655C29D094EA050F08BF90EA020F1E
:1043980005D054EA000C04BF1946104630BD91EA16
:1043A800030F1EBF0021002030BD5FEA545C05D119
:1043B8004000494128BF41F0004130BD14F5800458
:1043C8003CBF01F5801130BD01F0004545F0FE41CC
:1043D80041F470014FF0000030BD7FEA645C1ABF01
:1043E800194610467FEA655C1CBF0B46024650EA38
:1043F800013406BF52EA033591EA030F41F4002164
:1044080030BD00BF90F0000F04BF0021704730B5E9
:104418004FF4806404F132044FF000054FF00001BE
:1044280050E700BF90F0000F04BF0021704730B57F
:104438004FF4806404F1320410F0004548BF404254
:104448004FF000013EE700BF42004FEAE2014FEAA9
:1044580031014FEA02701FBF12F07F4393F07F4F84
:1044680081F06051704792F0000F14BF93F07F4FB6
:10447800704730B54FF4607401F0004521F00041F9
:1044880020E700BF50EA010208BF704730B54FF07F
:1044980000050AE050EA010208BF704730B511F084
:1044A800004502D5404261EB41014FF4806404F1BC
:1044B80032045FEA915C3FF4DCAE4FF003025FEA3E
:1044C800DC0C18BF03325FEADC0C18BF033202EBC6
:1044D800DC02C2F1200300FA03FC20FA02F001FA20
:1044E80003FE40EA0E0021FA02F11444C1E600BFBF
:1044F80070B54FF0FF0C4CF4E06C1CEA11541DBF72
:104508001CEA135594EA0C0F95EA0C0F00F0DEF83C
:104518002C4481EA030621EA4C5123EA4C5350EA21
:10452800013518BF52EA033541F4801143F4801372
:1045380038D0A0FB02CE4FF00005E1FB02E506F003
:104548000042E0FB03E54FF00006E1FB03569CF058
:10455800000F18BF4EF0010EA4F1FF04B6F5007F5E
:1045680064F5407404D25FEA4E0E6D4146EB0606D0
:1045780042EAC62141EA55514FEAC52040EA5E5059
:104588004FEACE2EB4F1FD0C88BFBCF5E06F1ED803
:10459800BEF1004F08BF5FEA500E50F1000041EB3A
:1045A800045170BD06F0004646EA010140EA0200E7
:1045B80081EA0301B4EB5C04C2BFD4EB0C0541EA09
:1045C800045170BD41F480114FF0000E013C00F31E
:1045D800AB8014F1360FDEBF002001F0004170BD42
:1045E800C4F10004203C35DA0C341BDC04F114045B
:1045F800C4F1200500FA05F320FA04F001FA05F2E7
:1046080040EA020001F0004221F0004110EBD370B3
:1046180021FA04F642EB06015EEA430E08BF20EADF
:10462800D37070BDC4F10C04C4F1200500FA04F382
:1046380020FA05F001FA04F240EA020001F0004114
:1046480010EBD37041F100015EEA430E08BF20EA87
:10465800D37070BDC4F1200500FA05F24EEA020ECF
:1046680020FA04F301FA05F243EA020321FA04F0FE
:1046780001F0004121FA04F220EA020000EBD370B5
:104688005EEA430E08BF20EAD37070BD94F0000FB5
:104698000FD101F00046400041EB010111F4801FE9
:1046A80008BF013CF7D041EA060195F0000F18BF9A
:1046B800704703F00046520043EB030313F4801FD6
:1046C80008BF013DF7D043EA0603704794EA0C0F90
:1046D8000CEA135518BF95EA0C0F0CD050EA4106A6
:1046E80018BF52EA4306D1D181EA030101F0004123
:1046F8004FF0000070BD50EA410606BF104619464B
:1047080052EA430619D094EA0C0F02D150EA013656
:1047180013D195EA0C0F05D152EA03361CBF104697
:1047280019460AD181EA030101F0004141F0FE4136
:1047380041F470014FF0000070BD41F0FE4141F4BA
:10474800780170BD70B54FF0FF0C4CF4E06C1CEABA
:1047580011541DBF1CEA135594EA0C0F95EA0C0F6F
:1047680000F0A7F8A4EB050481EA030E52EA03352A
:104778004FEA013100F088804FEA03334FF080554B
:1047880045EA131343EA12634FEA022245EA111578
:1047980045EA10654FEA00260EF000419D4208BF29
:1047A800964244F1FD0404F5407402D25B084FEAD6
:1047B8003202B61A65EB03055B084FEA32024FF482
:1047C80080104FF4002CB6EB020E75EB030E22BFDF
:1047D800B61A754640EA0C005B084FEA3202B6EB9F
:1047E800020E75EB030E22BFB61A754640EA5C004E
:1047F8005B084FEA3202B6EB020E75EB030E22BFDE
:10480800B61A754640EA9C005B084FEA3202B6EBDE
:10481800020E75EB030E22BFB61A754640EADC009D
:1048280055EA060E18D04FEA051545EA16754FEAFF
:1048380006164FEAC30343EA52734FEAC2025FEA1D
:104848001C1CC0D111F4801F0BD141EA00014FF0AC
:1048580000004FF0004CB6E711F4801F04BF01437D
:104868000020B4F1FD0C88BFBCF5E06F3FF6AFAE99
:10487800B5EB030C04BFB6EB020C5FEA500C50F129
:10488800000041EB045170BD0EF0004E4EEA1131AC
:1048980014EB5C04C2BFD4EB0C0541EA045170BDB3
:1048A80041F480114FF0000E013C90E645EA060EF7
:1048B8008DE60CEA135594EA0C0F08BF95EA0C0F25
:1048C8003FF43BAF94EA0C0F0AD150EA01347FF46D
:1048D80034AF95EA0C0F7FF425AF104619462CE744
:1048E80095EA0C0F06D152EA03353FF4FDAE1046A7
:1048F800194622E750EA410618BF52EA43067FF4F8
:10490800C5AE50EA41047FF40DAF52EA43057FF487
:10491800EBAE12E74FF0FF3C06E000BF4FF0010C92
:1049280002E000BF4FF0010C4DF804CD4FEA410CF6
:104938007FEA6C5C4FEA430C18BF7FEA6C5C1BD0C3
:1049480001B050EA410C0CBF52EA430C91EA030F44
:1049580002BF90EA020F0020704710F1000F91EAA1
:10496800030F58BF994208BF90422CBFD8176FEA6F
:10497800E37040F0010070474FEA410C7FEA6C5C3D
:1049880002D150EA013C07D14FEA430C7FEA6C5C44
:10499800D6D152EA033CD3D05DF8040B704700BF70
:1049A8008446104662468C461946634600E000BFBE
:1049B80001B5FFF7B7FF002848BF10F1000F01BD90
:1049C8004DF808EDFFF7F4FF0CBF012000205DF85B
:1049D80008FB00BF4DF808EDFFF7EAFF34BF0120E0
:1049E80000205DF808FB00BF4DF808EDFFF7E0FF79
:1049F80094BF012000205DF808FB00BF4DF808EDCA
:104A0800FFF7CEFF94BF012000205DF808FB00BF30
:104A18004DF808EDFFF7C4FF34BF012000205DF812
:104A280008FB00BF4FEA410212F5001215D211D55A
:104A38006FF47873B3EB625212D94FEAC12343F093
:104A4800004343EA505311F0004F23FA02F018BF15
:104A5800404270474FF00000704750EA013005D1DE
:104A680011F0004008BF6FF0004070474FF00000A1
:104A7800704700BF4FEA4102B2F1E04324BFB3F5EB
:104A8800001CDCF1FE5C0DD901F0004C4FEAC002BD
:104A98004CEA5070B2F1004F40EB830008BF20F0A1
:104AA8000100704711F0804F21D113F13872BCBF5B
:104AB80001F00040704741F480114FEA5252C2F1B0
:104AC8001802C2F1200C10FA0CF320FA02F018BFF9
:104AD80040F001004FEAC1234FEAD32303FA0CFC4C
:104AE80040EA0C0023FA02F34FEA4303CCE77FEADB
:104AF800625307D150EA01331EBF4FF0FE4040F425
:104B08004000704701F0004040F0FE4040F40000D3
:104B1800704700BF73B96AB9002908BF0028BCBF35
:104B280000204FF00041C4BF6FF000414FF0FF304C
:104B380000F03CB882B0EC462DE9005000F006F8D1
:104B4800DDF804E002B00CBC704700BF2DE9F0416D
:104B5800069C154606460F46984600F029F805FBC0
:104B680001F300FB0838A5FB0023B21A434467EBA6
:104B78000303C4E90023BDE8F08100BF2DE9F0413B
:104B8800069C904606460F461D4600F05FF900FB5E
:104B980005F5A0FB082308FB0155B21A2B4467EB67
:104BA8000303C4E90023BDE8F08100BF704700BFDC
:104BB80000292DE9F043C0F2A6800026002BC0F2A0
:104BC8009C80884694469E46154604460F46002B10
:104BD8003DD18A4259D9B2FA82F33BB1C3F12002DE
:104BE8009F4020FA02F29D4017439C40290C220C5A
:104BF800B7FBF1FEA8B201FB1E7742EA074700FBAC
:104C08000EF3BB420AD97F190EF1FF3280F00581FD
:104C1800BB4240F20281AEF1020E2F44FF1AA4B249
:104C2800B7FBF1F301FB137744EA074700FB03F0F6
:104C3800B84208D97F1903F1FF3280F0F080B842FA
:104C480040F2ED80023B43EA0E43002203E08B4230
:104C58000FD900221346341C18BF012460424FF0BC
:104C6800000565EB45015840514000196941BDE810
:104C7800F083B3FA83F2002A40F086808B4202D395
:104C8800844500F2DB800123E5E712B90123B3FB79
:104C9800F2F5B5FA85F000283BD1781B4FEA154E9E
:104CA8001FFA85FC0122B0FBFEF8210C0EFB180749
:104CB80041EA07470CFB08F3BB4207D97F1908F103
:104CC800FF3102D2BB4200F2BD808846FF1AA4B26F
:104CD800B7FBFEF30EFB137744EA07470CFB03FC14
:104CE800BC4507D97F1903F1FF3102D2BC4500F258
:104CF800A7800B4643EA0843ADE752426FEA06062F
:104D080063EB43035DE7404261EB41014FF0FF363F
:104D180054E7C0F1200224FA02F107FA00F38540B3
:104D28004FEA154ED7401943B7FBFEF20B0C0EFBAA
:104D380012771FFA85FC43EA07430CFB02F79F42F0
:104D480004FA00F407D95B1902F1FF3074D29F42CC
:104D580072D9023A2B44DF1B89B2B7FBFEF80EFB6F
:104D6800187341EA03430CFB08F79F4208D95B1903
:104D780008F1FF315CD29F425AD9A8F102082B44AE
:104D8800D81B48EA02428EE7C2F120032CFA03F14D
:104D98000EFA02FE20FA03F741EA0E0E08FA02F0B4
:104DA80028FA03F14FEA1E453843B1FBF5F8030C26
:104DB80005FB18111FFA8EF743EA014107FB08F3B8
:104DC8008B420CFA02FC09D911EB0E0108F1FF39EC
:104DD80030D28B422ED9A8F102087144C91A80B288
:104DE800B1FBF5F305FB131140EA014107FB03F79B
:104DF8008F4208D911EB0E0103F1FF3016D28F4212
:104E080014D9023B714443EA0843C91BA3FB0C892C
:104E1800494509D305D000221DE79646FEE613460C
:104E280011E794404445F6D2013BF4E70346EAE72C
:104E38008846A5E7C846D1E702468CE713460AE745
:104E4800023B57E7A8F102082F443FE72DE9F0415C
:104E5800002B44D18A42154604464FD9B2FA82F74C
:104E68000E464FB1C7F12003B94020FA03F602FA03
:104E780007F50E4300FA07F44FEA154E230CB6FB6C
:104E8800FEF0AFB20EFB106143EA014307FB00F1ED
:104E9800994209D95B1900F1FF3280F0EC80994200
:104EA80040F2E98002382B445A1AA4B2B2FBFEF34E
:104EB8000EFB132244EA024207FB03F7974208D984
:104EC800521903F1FF3180F0D880974240F2D58023
:104ED800023B43EA004000263146BDE8F0818B42A0
:104EE80047D8B3FA83F6002E48D18B4202D38242C8
:104EF80000F2CD8001203146BDE8F08112B90125CC
:104F0800B5FBF2F5B5FA85F8B8F1000F77D14A1B71
:104F18004FEA154EAFB20126B2FBFEF0230C0EFB92
:104F2800102143EA014107FB00F38B4207D94919D5
:104F380000F1FF3202D28B4200F2BA801046C91A41
:104F4800A4B2B1FBFEF30EFB131144EA014407FBC4
:104F580003F7A74208D9641903F1FF3280F08F8064
:104F6800A74240F28C80023B43EA00403146BDE84C
:104F7800F081002630463146BDE8F081C6F12004B4
:104F880022FA04F5B3402B4320FA04FC01FA06F791
:104F980021FA04F54FEA134E4CEA0707B5FBFEF871
:104FA800390C0EFB18551FFA83FC41EA05450CFB2A
:104FB80008F1A94202FA06F204D9ED1808F1FF3403
:104FC80067D3A0466D1ABFB2B5FBFEF40EFB1455AD
:104FD80047EA05410CFB04FC8C4504D9C91804F1C7
:104FE800FF355CD32C4644EA0844CCEB0101A4FB12
:104FF8000223994248D344D0204600266CE7C8F1E2
:10500800200401FA08F305FA08F520FA04F7E1404C
:105018004FEA154E1F43B1FBFEF63A0C0EFB161174
:105028001FFA85FC42EA01430CFB06F29A4200FA99
:1050380008F407D95B1906F1FF3137D29A4235D9FE
:10504800023E2B449B1ABFB2B3FBFEF00EFB10339B
:1050580047EA03430CFB00F1994207D95B1900F1B9
:10506800FF3221D299421FD902382B445A1A40EAFA
:105078000646674650E7104616E70B4629E71346EB
:1050880072E7B0409042B7D2601E002624E730464F
:1050980022E7A94295D9A8F102081D4492E78C4558
:1050A800A0D9023C19449EE71046DFE70E46C9E73F
:1050B8000238294443E700BF10F8012B11F8013BDF
:1050C800012A28BF9A42F7D0D01A704700F1080386
:1050D80043604FF0FF32C3600361002382600360C6
:1050E800704700230361704743684B609A688A6081
:1050F8009A685160996008610368013303607047DA
:105108000A68531C30B501D1036907E000F10803B0
:105118005C682568954201D82346F9E75A684A60D1
:1051280091608B605960086103680133036030BD8A
:1051380042688168036991608268416851605A6871
:10514800824204BF82685A600022026118680138EE
:105158001860704708B503F053FCFCE710B50E4B18
:105168001A6850600D4A12689042044607D20C4AE9
:1051780010681968BDE810400431FFF7C1BF094A3B
:10518800106819680431FFF7BBFF074B1A6894428F
:1051980038BF1C6010BD00BF6C06002074060020DC
:1051A80078060020E0050020700600202DE9F84F61
:1051B8000A9E0C9C0F4615469A46814628B96448B3
:1051C800644940F22D2205F04FFA052E05D96248B0
:1051D800604940F22E2205F047FA3CB9A80001F0D8
:1051E800E3FA8346002800F0AE8000E0A3465C2086
:1051F80001F0DAFA044688B1AD002A46C0F830B0AA
:10520800A521584612F03BFC236B043D1D4425F0B4
:1052180007057B1E04F13302093705E0584601F003
:1052280061FB90E0BB4206D013F8011F02F8011F92
:1052380019780029F6D1052E4FF0000BB04604F17D
:10524800040728BF4FF00508384684F83DB0C4F875
:105258002C80C4F84880C4F84CB0FFF742FF04F132
:105268001800FFF73EFFC8F10603A361C4F854B065
:1052780024616462C4F850B084F858B0284649469E
:10528800524601F0A9FB0B9B206003B11C6001F0A2
:10529800C5FB324A324D1368DFF8E49001331360DE
:1052A8002B680BBB2C601268012A25D1984609EBA4
:1052B800080008F11408FFF709FFB8F1780FF6D1D4
:1052C800DFF8C0A0DFF8C0805046FFF7FFFE404679
:1052D800FFF7FCFE2348FFF7F9FE234BC3F800A0B5
:1052E800224BC3F8008007E0214B1B6823B92B68C9
:1052F800DB6AB34298BF2C601E4A1F49136801330A
:105308001360E26A23640B68012404FA02F0034381
:1053180014200B6000FB02903946FFF7E5FE01F010
:105328009FFB134B1B685BB12B68DB6AB34207D248
:10533800124B4FF080521A60BFF34F8FBFF36F8F3D
:105348002046BDE8F88F4FF0FF30BDE8F88F00BF6A
:105358006A7C0108757C01088E7C0108BC06002067
:105368006C0600207C060020E0050020780600205E
:10537800E405002090060020C006002004ED00E0AF
:10538800F405002094060020A80600201FB500247C
:1053980000940194029403941648174996222346D0
:1053A800FFF704FF012818D101F028F8012814D1CB
:1053B8004FF05F0383F31188BFF36F8FBFF34F8FF5
:1053C8000E4B4FF0FF321A600D4B18600D4B1C60EE
:1053D80004B0BDE8104001F0AFBB40B90A480B4922
:1053E80040F2516204B0BDE8104005F03DB904B088
:1053F80010BD00BF5D5100081A7D0108700600202D
:10540800E4050020740600201F7D0108757C010852
:10541800024A136801331360704700BFE805002093
:10542800014B1868704700BF740600202DE9F0474B
:105438003E4B3F4A196811603E4A1268002A46D11D
:105448001A683D4E01321A601F68F7B93B4C236851
:105458001B682BB13A483B4940F2AA7205F004F99F
:10546800394B2268196821601A60384A1368013379
:10547800136023681B6813B94FF0FF3304E02F4B08
:105488001B68DB68DB685B6833603368DFF8CC80F7
:10549800DFF8CC909F424FF000040DD3274B1A68D9
:1054A800126812B94FF0FF3305E01B68DB68DD684E
:1054B8006B689F4211D23360D9F80030DA6A14233E
:1054C800534358F80330022B28BF012425E0204A13
:1054D80013680133136000241FE005F1040A5046E5
:1054E800FFF726FEAB6A1BB105F11800FFF720FE97
:1054F8001848E96A026801238B40134303601420AB
:1055080000FB01805146FFF7EFFDD9F80030EA6A49
:10551800DB6A9A4228BF0124C0E70F4B1B68002BA7
:1055280018BF01242046BDE8F08700BF740600209C
:10553800080000E0E805002070060020E0050020D3
:10554800277D0108757C010878060020EC050020FD
:10555800F0050020C0060020C4060020F405002045
:105568006C06002070B52E4C23682BB92D482E49A7
:1055780040F28E6205F078F801F050FA2368013B9A
:10558800236023680BB1002445E0284B1B68002BDF
:10559800F9D0274B1A680AB3DB68DC68261D04F1CA
:1055A8001800FFF7C5FD3046FFF7C2FD2149E26A42
:1055B8000B68012505FA02F003430B601E4B14200B
:1055C80000FB02303146FFF78FFD1C4BE26A1B6877
:1055D800DB6A9A4224BF1A4B1D60DAE7194C23682C
:1055E800ABB9174B1C68012CCDD1174B4FF080522B
:1055F8001A60BFF34F8FBFF36F8F0CE0FFF716FFF2
:1056080010B10F4B01221A602368013B2360236805
:10561800002BF3D1E5E701F023FA204670BD00BF67
:10562800E8050020527D0108757C0108BC060020B1
:105638007C060020C0060020F40500206C0600202F
:10564800C4060020F005002004ED00E038B50C4643
:10565800054628B92548264940F23F3205F004F8A6
:105668002CB9244822494FF4507204F0FDFF224B14
:105678001B682BB121481E4940F2413204F0F4FF67
:10568800FFF7C6FE1E4B2A681B689342144402D2D9
:10569800944207D201E0944206D39C4294BF00236F
:1056A800012302E0002300E001232C608BB1154D9B
:1056B80028680430FFF73CFD40B92B681249D86AC6
:1056C8000A680123834022EA03030B602046FFF7A0
:1056D80045FDFFF747FF38B90C4B4FF080521A6071
:1056E800BFF34F8FBFF36F8F38BD00BF677D0108D1
:1056F800757C01087A7D0108E8050020927D010883
:10570800740600206C060020C006002004ED00E0AE
:1057180038B5044640B9174B4FF080521A60BFF3B2
:105728004F8FBFF36F8F38BD134B1B682BB11348D6
:10573800134940F2A33204F097FFFFF769FE114DB9
:10574800114B1B68286804301C44FFF7F1FC40B972
:105758002B680E49D86A0A680123834022EA0303AA
:105768000B602046FFF7FAFCFFF7FCFE0028D2D0BA
:1057780038BD00BF04ED00E0E8050020927D010877
:10578800757C01086C06002074060020C006002005
:1057980038B50D46044608B9044B1C6801F03EF9BB
:1057A8002565BDE8384001F05BB900BF6C060020F4
:1057B80070B51E4B1A681E4B0AB1012233E01D4E0C
:1057C8001A603268336812681B6B9A4204D83068D2
:1057D8003168343102F09EFF174B1C68B4FA84F428
:1057E800E4B2C4F11F041423144D6343EB582BB9DE
:1057F8001348144940F6C80204F036FF142202FB8D
:1058080004F3E91808334868406848602B44984214
:1058180004BF43684B6002FB04546368DB68336071
:1058280033685A6B084B1A6070BD00BFE80500204A
:10583800C40600206C060020C0060020F4050020E5
:10584800AC7D0108757C0108040000E070B50E46C7
:10585800054628B91048114940F6DA0204F004FF59
:105868000F4C216828461831FFF74AFC206804309D
:10587800FFF75EFC40B923680A49D86A0A68012321
:10588800834022EA03030B60074B18683044BDE8E5
:105898007040FFF763BC00BFF37D0108757C010809
:1058A8006C060020C00600207406002070B50E4665
:1058B800054628B91048114940F6591204F0D4FE9B
:1058C8000F4C216828461831FFF70EFC2068043079
:1058D800FFF72EFC40B923680A49D86A0A680123F1
:1058E800834022EA03030B60074B18683044BDE885
:1058F8007040FFF733BC00BFF37D0108757C0108D9
:105908006C060020C00600207406002038B5C36865
:10591800DC682CB91648174940F6B41204F0A4FE06
:1059280004F118052846FFF703FC134B1B687BB9E5
:10593800251D2846FFF7FCFB1048E16A0268012391
:105948008B40134303600E4B142000FB013000E032
:105958000C482946FFF7C8FB0B4BE26A1B68DB6A59
:105968009A4283BF094B01201860002038BD00BF50
:10597800197E0108757C0108E8050020C006002092
:10598800F40500207C0600206C060020C4060020D8
:1059980010B5044628B90648064940F6142204F012
:1059A80063FE054B1B682360044B1B68636010BDD6
:1059B800487E0108757C0108EC050020740600206B
:1059C80038B50D46044628B91448154940F61E2234
:1059D80004F04AFE2DB91348114940F61F2204F07D
:1059E80043FE01F01BF8104B1968104B1A68236826
:1059F8009A42636801D099420BD22A68C81A904229
:105A080007D25B1A134420462B60FFF7C1FF00241E
:105A180000E0012401F024F8204638BD487E010842
:105A2800757C0108527E010874060020EC050020F0
:105A3800014B01221A607047C4060020054B1B6801
:105A480033B1054B1B68002B0CBF022000207047A8
:105A580001207047E4050020E80500202DE9F04109
:105A68000446002838D01D4DC36A2A68D26A93427A
:105A780032D282691A4E002AA1BF2A68D26AC2F1BC
:105A8800060282611427426907FB03639A4220D108
:105A980000F104084046FFF74BFB124B48B9E06A97
:105AA8004743F2592AB919680122824021EA0202C1
:105AB8001A602A68D26AE26201201C68904020437A
:105AC8001860142000FB02604146BDE8F041FFF772
:105AD8000BBB2B68DB6AC362BDE8F0816C06002053
:105AE800F4050020C006002070B5044608B900205F
:105AF80070BD204B1B68984205D01F481F4940F6CF
:105B0800A75204F0B1FDE36C2BB91D481B4940F6C0
:105B1800A95204F0A9FDE36CE16AA26C013B914231
:105B2800E364E4D0002BE2D1251D2846FFF700FBF3
:105B38001449154A50B9E66A14237343CB582BB954
:105B480010680123B34020EA03031360A36CE362E7
:105B5800C3F10600A0611068012404FA03F630437B
:105B68001060142000FB03102946FFF7BDFA2046F9
:105B780070BD00BF6C060020607E0108757C0108BE
:105B8800767E0108F4050020C0060020044B1A6840
:105B98001AB11968CA6C0132CA641868704700BF24
:105BA8006C06002038B51546026C044632B9056803
:105BB80045BB4068FFF798FF656024E06DB98068D1
:105BC80011F052FFA268236C13446268A3609342E9
:105BD80018D32368A360284615E0C06811F044FF75
:105BE800236CE26821685B421A448A42E2603EBF45
:105BF80062689B18E360022D04D1A36B13B1A36BF9
:105C0800013BA3630020A36B0133A36338BD10B528
:105C1800026C03466AB1C4681444C4604068844294
:105C280024BF1868D860BDE810400846D96811F04C
:105C38001BBF10BD10B5044600F0F0FEA36C002B8E
:105C48000CDD636A53B104F12400FFF75FFE08B16D
:105C5800FFF7EEFEA36C013BA364EFE74FF0FF33C1
:105C6800A36400F0FDFE00F0D9FE636C002B0CDD90
:105C7800236953B104F11000FFF748FE08B1FFF79C
:105C8800D7FE636C013B6364EFE74FF0FF33636457
:105C9800BDE8104000F0E4BE38B50D46044628B90A
:105CA8001A481B494FF4847204F0DEFC00F0B6FE7B
:105CB800216CE36B2268A2604B43D0185B1A134433
:105CC8006060E36000204FF0FF33A0636364A36467
:105CD80085B92369B3B104F11000FFF717FE012855
:105CE80010D10C4B4FF080521A60BFF34F8FBFF3A7
:105CF8006F8F07E004F11000FFF7E8F904F12400C2
:105D0800FFF7E4F900F0ACFE012038BDD77E0108AA
:105D1800DF7E010804ED00E0F8B50D46174606469B
:105D280028B91448144940F2431204F09DFC1DB1EF
:105D380005FB06F0013000E02846543000F034FD41
:105D4800044670B10DB9206002E000F1540303600D
:105D5800E663256420460121FFF79EFF84F8507012
:105D680005E00648044940F27F1204F07DFC204615
:105D7800F8BD00BFF87E0108DF7E01081F7D01081D
:105D88002DE9FF410F4601921E46044628B959489D
:105D9800594940F2672204F067FC1FB9236C002BB5
:105DA80040F09080022E03D1E36B012B40F09180EC
:105DB800FFF744FE18B9019B002B40F091804FF08B
:105DC800000800F02BFEA26BE36B9A4201D3022E6F
:105DD8001FD1E36C494A43F4807313602046394667
:105DE8003246FFF7DFFE636A33B104F12400FFF7A0
:105DF8008DFD012809D100E038B1414B4FF08052A8
:105E08001A60BFF34F8FBFF36F8F00F029FE012098
:105E18006DE0019D15B900F023FE4CE0B8F1000FCC
:105E280002D102A8FFF7B4FD00F01AFEFFF7F0FA5E
:105E380000F0F4FD636C013304BF00236364A36CBA
:105E4800013304BF0023A36400F00AFE02A801A9DD
:105E5800FFF7B6FD50BB00F0E1FDD4F83880E56BE4
:105E680000F0FEFDA8451BD1E36C244A43F480638F
:105E7800136004F110000199FFF7E8FC2046FFF7D2
:105E8800D9FEFFF76FFB10B14FF0010899E71C4BE3
:105E98004FF080521A60BFF34F8FBFF36F8FF3E755
:105EA8002046FFF7C7FEFFF75DFBEDE72046FFF74B
:105EB800C1FEFFF757FBE36C104A43F4007313600D
:105EC800002014E00F480C494FF41A7204F0CCFB80
:105ED80068E70D48084940F2692204F0C5FB67E706
:105EE8000A4805494FF41B7204F0BEFB67E704B08B
:105EF800BDE8F081D77E0108DF7E01080C0000E0D4
:105F080004ED00E01A7F01086A7F0108B17F0108EB
:105F180070B50646542000F047FC0446D8B101236A
:105F28000025C3634FF0FF33856345604364056014
:105F380083648560C560056480F850601030FFF7A1
:105F4800C5F804F12400FFF7C1F8204629462A467F
:105F58002B46FFF715FF204670BD00002DE9F041E4
:105F68000E4690461D46044628B92748274940F260
:105F7800244204F079FB0EB9236C9BBB022D02D19D
:105F8800E36B012B35D100F049FEEFF311874FF099
:105F98005F0383F31188BFF36F8FBFF34F8FA26B3B
:105FA800E36B9A4201D3022D1AD1204631462A4684
:105FB800FFF7F8FDA36C01330DD1636A73B104F1E7
:105FC8002400FFF7A3FC48B1B8F1000F06D0012068
:105FD800C8F8000014E0A36C0133A36401200FE0AB
:105FE80000200DE00A48094940F2254204F03CFB34
:105FF800C4E70848054940F2264204F035FBC2E7E9
:1060080087F31188BDE8F081D77E0108DF7E01089B
:106018001A7F01086A7F010870B50D46044628B941
:106028002148224940F2BF4204F01EFB236C2BB1E9
:106038001F481E4940F2C34204F016FB23680BB9FF
:1060480063683BBB00F0EAFDEFF311864FF05F0396
:1060580083F31188BFF36F8FBFF34F8FA26BE36B8E
:106068009A4215D2A36B0133A363A36C01330AD1FF
:10607800636A5BB104F12400FFF748FC30B12DB12D
:10608800012028600DE0A36C0133A364012008E01F
:10609800002006E0074805494FF4996204F0E4FA45
:1060A800D0E786F3118870BDD77E0108DF7E01082E
:1060B80007800108208001082DE9FF410E46019262
:1060C8009846044628B95648564940F25B5204F0AF
:1060D800CBFA1EB9236C002B40F09080FFF7AEFC82
:1060E80018B9019B002B40F09080002700F096FC27
:1060F800A36B63B320463146E568FFF788FDB8F126
:10610800000F10D1A36B013BA363236813B9FFF7FA
:106118003DFD60602369B3B104F11000FFF7F6FBA1
:10612800012810D107E0636AE56063B104F1240037
:10613800FFF7ECFB38B13C4B4FF080521A60BFF3CD
:106148004F8FBFF36F8F00F08BFC012064E0019D3F
:1061580015B900F085FC4FE017B902A8FFF718FC45
:1061680000F07EFCFFF754F900F058FC636C013333
:1061780004BF00236364A36C013304BF0023A3643A
:1061880000F06EFC02A801A9FFF71AFC78BB00F02A
:1061980045FCA56B00F064FC1DBBE36C234A43F48B
:1061A80040731360236833B900F038FC6068FFF768
:1061B80055FC00F055FC04F124000199FFF746FB5B
:1061C8002046FFF737FDFFF7CDF908B101278DE726
:1061D800154B4FF080521A60BFF34F8FBFF36F8F8C
:1061E800F4E72046FFF726FDFFF7BCF9EEE7204667
:1061F800FFF720FDFFF7B6F900200DE00C4809492C
:1062080040F25C5204F030FA68E70A48054940F267
:106218005F5204F029FA68E704B0BDE8F08100BFD6
:10622800D77E0108DF7E010804ED00E00C0000E0E5
:106238007B800108B17F0108F8B50E461746044671
:1062480028B91D481D4940F2156204F00DFA0EB92F
:10625800236C3BBB00F0E2FCEFF311854FF05F03CA
:1062680083F31188BFF36F8FBFF34F8FA06B00B319
:1062780020463146FFF7CBFCA36B013BA363636C5D
:1062880001330AD123695BB104F11000FFF73EFB2B
:1062980030B12FB1012038600BE0636C01336364C7
:1062A800012006E00648054940F2166204F0DCF9D0
:1062B800D0E785F31188F8BDD77E0108DF7E010895
:1062C8007B80010810B5044628B9064806494FF4F2
:1062D800D46204F0C9F900F0A1FBA46B00F0C0FB84
:1062E800204610BDD87E0108DF7E010830B50023A6
:1062F800064A52F8335002EBC3041DB942F8331072
:10630800606030BD01330A2BF2D130BDC06E002071
:1063180070B504460E46154600F080FB636C0133E9
:1063280004BF00236364A36C013304BF0023A36488
:1063380000F096FBA36B2BB904F1240031462A46E2
:10634800FFF7B4FA2046BDE87040FFF773BC0000C1
:10635800F8B5134C00F062FB2568EDB9114F124EE9
:106368003846FEF7B3FE3046FEF7B0FE0F4B1F600F
:106378000F4B14200C212A461E60FFF7CDFC20602D
:1063880028B90C480C4940F21A3204F06DF920681B
:1063980010B10A49FFF7AAFFBDE8F84000F060BB5A
:1063A800F8060020CC060020E0060020C8060020E1
:1063B800FC060020DF800108EB8001080581010848
:1063C80010B5044691424160206105D8D21A83690C
:1063D8009A420CD2074B04E09A4201D2994206D263
:1063E800054B1868211DFEF78BFE002010BD01200B
:1063F80010BD00BFFC060020C80600201FB5FFF72F
:10640800A7FF0D4B1B683BB90C480D494FF4877229
:1064180004F02AF900200CE00123009300230193E3
:1064280002930393074808499622FEF7BFFE002807
:10643800EAD005B05DF804FBF80600201F7D0108CE
:10644800EB800108856500080A8101082DE9F04103
:10645800804617461E460D4689B12C2000F0A4F947
:10646800044698B1FFF774FF069BC4F80080A56145
:10647800E76126626362201DFEF733FE06E00548E9
:1064880005494FF49B7204F0EFF82C462046BDE80E
:10649800F08100BF12810108EB8001082DE9FF415E
:1064A8000D4690461F46064628B91348134940F240
:1064B800411204F0D9F8124C2068C8B1052D019595
:1064C800CDF8088003960EDCFFF7B8FA022818BF4B
:1064D8000022206808BF0A9A01A90CBF00231346AE
:1064E800FFF74EFC04E001A93A460023FFF736FD0A
:1064F80004B0BDE8F08100BF2E810108EB800108DF
:10650800F8060020F7B5194D2B681A683AB3DB680E
:10651800DC681E68271D3846FEF70AFE636A2046B7
:106528009847E369012BEED1A3693344B34206D9F6
:106538006360246128683946FEF7E2FDE3E700213D
:106548000091204632460B46FFF7A8FF0028DAD113
:10655800074808494FF43F7204F086F8D3E7064A23
:1065680011682960136003B0F0BD00BFC8060020A1
:1065780035810108EB800108FC0600202DE9F04771
:1065880086B0DFF8ACA1DAF800301C68B4FA84F4FD
:1065980064091CB9DB68D3F8008001E04FF00008FB
:1065A8005C4DFEF735FFFEF73BFF2B6898428146AE
:1065B8002F4603D2FFF7A6FF012300E00023C5F80A
:1065C8000090554E002B42D144BBC8452DD8FEF74C
:1065D800C9FFDAF80030DB68DD68281DFEF7A8FD82
:1065E800EB69012B16D1A969284641444A4643461E
:1065F800FFF7E6FE01280DD10094284621464246C1
:106608002346FFF74BFF28B94448454940F2931207
:1066180004F02AF86B6A284698471EE0414B1B682D
:106628001C68B4FA84F2520900E022463068C9EBCB
:106638000801FFF76DFEFEF795FF70B93A4B4FF072
:1066480080521A60BFF34F8FBFF36F8F05E0FEF7DC
:1066580089FF02E0039B002B08DA0022306803A9B7
:106668001346FFF729FD0028F4D18AE7059C6369E2
:1066780013B1201DFEF75CFDFEF7D2FE3B68984281
:10668800054601D2FFF73EFF039A3D60092AE4D888
:106698000123934013F404782AD113F0C70F05D1CE
:1066A8009B06DAD5204600F01DF9D6E7049BA169C0
:1066B800204619442A46FFF783FE0128CDD1636A94
:1066C80020469847E369012BC7D1A269049BCDF8FE
:1066D80000801A44204641464346FFF7DFFE002863
:1066E800BBD10E480E494FF4287203F0BDFFB4E742
:1066F800049BA3612BB90D48094940F2B72203F066
:10670800B3FFA169204629442A462B46FFF758FEC5
:10671800A3E700BFF4060020F80600203581010831
:10672800EB800108FC06002004ED00E03D81010833
:10673800C806002010B5044628B9064806494FF493
:10674800537203F091FF00F069F9246A00F088F9A8
:10675800204610BD2E810108EB80010810B5104BB2
:106768001A68824201D21346FAE759685C188442D3
:1067780001BF406809181846596041684418944296
:1067880009D1084C2468A2421FBF52688918416089
:106798001A6818BF12680260834218BF186010BDDB
:1067A80008070020040700202DE9F8430446FEF7F7
:1067B8002FFE4249424D0B68FBB9424A424E5007F0
:1067C8001FBF0732414B22F007029B1A08BF45F250
:1067D800F0531344083B23F0070300207060326035
:1067E800586018600B60981A1360394B5060186035
:1067F800384B18604FF000432B602B681C424BD17C
:10680800002C47D0083462071CBF24F00704083462
:10681800002C3FD02F4B1A68944298463CD82A4BFC
:106828001E687268A24203D30A68964206D133E012
:106838003268002AF8D033461646F2E732681F68F5
:106848001A6073681B1B102B07F1080711D906EB98
:10685800040919F0070F04D01F482049E82203F063
:1068680003FF73681B1BC9F8043048467460FFF7C0
:1068780075FF17497268D8F8003008689B1A834278
:10688800C8F8003038BF0B602B681A4300237260C9
:10689800336002E0274600E00027FEF763FE0FB9E9
:1068A80001F01EFF7B0705D00D480C494FF4947288
:1068B80003F0DAFE3846BDE8F88300BF040700207D
:1068C800005D00201007002008070020005D002060
:1068D800045D00200007002062810108A3810108EF
:1068E800CE81010838B5044688B3194B50F8042CFA
:1068F800196811421D4605D1164817494FF49E7272
:1069080003F0B2FE54F8083C2BB11448124940F287
:106918003D1203F0A9FE54F8043C2A681A4216D026
:1069280054F8081C99B923EA020344F8043CFEF71A
:106938006FFD0B4A54F8041C1368A4F108000B44BB
:106948001360FFF70BFFBDE83840FEF70BBE38BDFC
:10695800005D00200B820108A38101083C82010828
:1069680000070020014B1868704700BF000700208F
:1069780006480068006880F3088862B661B6BFF30D
:106988004F8FBFF36F8F00DF00BF000008ED00E0FE
:10699800DFF80C00016841F47001016070470000E5
:1069A80088ED00E008B5094B1B68013305D008489D
:1069B800084940F2071203F057FE4FF05F0383F3D4
:1069C8001188BFF36F8FBFF34F8FFEE700000020E1
:1069D8005C820108768201084FF0807300E90A00A2
:1069E800054B40F80C3C6FF0020340F8202C40F8AF
:1069F800243C4438704700BFAD690008064B19684D
:106A08000868B0E8F04F80F30988BFF36F8F4FF044
:106A1800000080F3118870476C0600204FF05F0378
:106A280083F31188BFF36F8FBFF34F8F084A136842
:106A38000133012B13600AD1064B1B6813F0FF0FBB
:106A480005D00548054940F29F1203F00DBE704776
:106A58000000002004ED00E0C082010876820108F1
:106A680010B5084C23682BB9074808494FF4D3726E
:106A780003F0FAFD2368013B23600BB983F3118807
:106A880010BD00BF00000020F582010876820108D1
:106A9800EFF30980BFF36F8F144B1A681EF0100FC5
:106AA80008BF20ED108A20E9F04F10604DF8043D32
:106AB8004FF05F0080F31188BFF34F8FBFF36F8FE4
:106AC800FEF776FE4FF0000080F3118808BC1968C5
:106AD8000868B0E8F04F1EF0100F08BFB0EC108A3D
:106AE80080F30988BFF36F8F704700BF6C060020E2
:106AF80008B5EFF311834FF05F0282F31188BFF3FB
:106B08006F8FBFF34F8FFEF791FC18B1034B4FF017
:106B180080521A60002383F3118808BD04ED00E059
:106B2800034B044A1A60072243F8042C704700BF3D
:106B380014E000E03F90020013B52C4B2C4A196872
:106B480091421C4605D12B482B4940F23D1203F0D7
:106B58008BFD2268294B9A4205D1294826494FF4D2
:106B68009F7203F081FD274B1A78D2B20192FF225F
:106B78001A701B78244ADBB28DF803309DF8033075
:106B880003F05F031370214A072313609DF8031075
:106B9800090603F1FF3007D59DF803305B00DBB22F
:106BA8008DF803300346F1E71B0203F4E06313603A
:106BB800019B144ADBB21370154B1A6842F47F022A
:106BC8001A601A6842F07F421A60FFF7A9FF114B5A
:106BD80000221A60FFF7DCFE0F4A136843F04043B7
:106BE8001360FFF7C5FEFFF7DDFE00BF00ED00E014
:106BF80071C20F41078301087682010870C20F41F4
:106C08002A83010800E400E0085D00200C5D0020F4
:106C180020ED00E00000002034EF00E008B5EFF3BD
:106C280005830F2B0BD90E4A9B5C0E4A12789A42A9
:106C380005D90D480D494FF4387203F015FD0C4B7A
:106C48000C4A1B68126803F4E063934207D90A48A8
:106C580006494FF43C72BDE8084003F005BD08BD85
:106C6800F0E300E0085D00204D830108768201080A
:106C78000CED00E00C5D00207783010808B54FF4A7
:106C88008070012100F096FB4FF480700021BDE870
:106C9800084000F08FBB0000436823F040720B6887
:106CA80022F4807213430A7943EA022343600B6992
:106CB800CA681A438B6810B51A438468084B234086
:106CC80013434A7943EA42038360C36A23F4700298
:106CD8000B7D013BDBB242EA0353C36210BD00BF28
:106CE800FDF7FFC000230360037143718360C36035
:106CF800036101230375704710B5074C074B6268A1
:106D0800134090E80600114382681143C2680A43A1
:106D18001343636010BD00BF00230140E030FCFF57
:106D28000023036043608360C3607047836811B1C8
:106D380043F0010301E023F0010383607047092950
:106D480070B50CD9A1F10A04C66804EB4404072500
:106D5800A54026EA0505A3402B43C36009E0056961
:106D680001EB41060724B44025EA0404B340234359
:106D78000361062A0BD8013A446B02EB82021F23F7
:106D8800934024EA030391401943416370BD0C2AE0
:106D98000BD8073A046B02EB82021F23934024EAC4
:106DA800030391401943016370BD0D3AC46A02EBB5
:106DB80082021F23934024EA030391401943C162CE
:106DC80070BD836843F0804383607047C06C80B2B5
:106DD80070470368194214BF012000207047000063
:106DE800044BDA6809B1104301E022EA0000D860D8
:106DF800704700BF002004E0036823F0010303602C
:106E08000023036043608360C360036121234361FF
:106E1800294B984217D0294B98421BD0284B9842AF
:106E280020D0284B984225D0274B98422AD0274B70
:106E380098422ED0264B984232D0264B984236D0D4
:106E4800254B984203D13D2243F8082C7047234B29
:106E5800984204D14FF4746243F8202C7047204BB9
:106E6800984204D14FF4741243F8382C70471D4BE4
:106E7800984204D14FF0746243F8502C70471A4B73
:106E8800984203D1194A43F8642C7047184B98422A
:106E980003D1184A43F87C2C7047174B984203D10A
:106EA800164A43F8942C7047154B984203D14FF07B
:106EB8003D5243F8AC2C70471060024028600240F5
:106EC80040600240586002407060024088600240A2
:106ED800A0600240B860024010640240286402408A
:106EE8004064024058640240706402403D00002043
:106EF80088640240400F0020A064024000003D204A
:106F0800B86402400268134B10B51340CC680A6895
:106F180014434A6914438A691443CA6914430A6AC0
:106F280014434A6A14438A6A14434A6B14438A6BAB
:106F380022431343036043690C6B23F00702CB6AB7
:106F48002343134343610B6943604B6883608B6839
:106F5800C36010BD3F801CF0036811B143F001030A
:106F680001E023F001030360704741607047406807
:106F780080B27047006800F0010070470B0611D519
:106F880043694AB143F080038029436114D0036800
:106F980001F01E0119430EE023F0800380294361AC
:106FA80004D17047802907D0002AF0D1036801F086
:106FB8001E0123EA0101016070470000104A114BCD
:106FC80010B5114CA04294BF1C46144621F0F02382
:106FD80023F0C3122AB1006800F01E0000EAD12293
:106FE80002E0406900F0800289004CBF60682068B8
:106FF80023F08213184002D0101C18BF012010BDC6
:1070080000640240006002400F64024010B5084A64
:10701800084B094CA04294BF1846104611F0005F77
:1070280021F0F02121F0821114BFC160816010BDF0
:1070380000640240006002400F640240837910B58A
:107048000468002B31D01E4B196821EA04021A602B
:107058005A68016822EA01025A600279016802F15D
:10706800804202F59E321468214311609A680168D3
:1070780022EA01029A60DA68016822EA0102DA600B
:1070880042790168102A0BBF9A6802F180431143C4
:1070980003F59E3303BF9960D96802681A680BBF6D
:1070A8000A431143DA60196010BD037903F1804384
:1070B80003F59E331A6822EA04021A6010BD00BF65
:1070C800003C0140014B5861704700BF003C014043
:1070D800014B5861704700BF003C0140F0B50022E9
:1070E80001230C6893401C409C4229D1550003237E
:1070F8000668AB40DB431E4006600E790768AE4069
:107108003E4306600E79013E012E11D886681E4066
:1071180086604E798768AE403E438660466826EAB8
:10712800040444608C7946689440A4B234434460B3
:10713800C4682340C360CB79C468AB402343C360B1
:107148000132102ACCD1F0BD4FF6FF730360002343
:10715800037143718371C37170470369194214BF86
:1071680001200020704701837047418370470AB1AE
:10717800018370474183704710B501F00703C908C0
:1071880000EB81009B00046A0F21994024EA010169
:107198000162016A9A401143016210BD7FB5868879
:1071A80026F03F060446360468460D46360C00F0C5
:1071B80081F8029A2C48B2FBF0F081B20E43A68007
:1071C80023882A4E23F001031B041B0C23802B6801
:1071D800B3420AD85B000131B2FBF3F39BB2032B35
:1071E80089B298BF0423218423E0EE884BF6FF710F
:1071F8008E421BBF19214B4303EB4303B2FBF3F34E
:1072080015BF9BB2B2FBF3F343F480439BB2C3F3C5
:107218000B020AB943F001034FF4967101FB00F227
:107228004FF47A7192FBF1F2013292B243F40043C7
:107238002284A38323889BB243F0010323802388FD
:107248006989AA8823F4816323F002031B040A4393
:107258001B0C13439BB223802A89AB8913439BB22F
:10726800238104B070BD00BF40420F00A08601001A
:10727800014B1860704700BF00300040014B586058
:10728800704700BF00300040014B9860704700BF56
:1072980000300040024B4AF6AA221A60704700BF2D
:1072A80000300040024B4CF6CC421A60704700BFD9
:1072B8000030004010B51D4A936803F00C03042BFE
:1072C80003D0082B03D01A4B18E01A4B16E051686C
:1072D800536811F4800F03F03F03516814BF154A37
:1072E800134AB2FBF3F3114A5268C2F30142C1F3E5
:1072F800881101324B435200B3FBF2F30B4A03608F
:1073080093680D49C3F30313CC5C0368E3404360FF
:107318009468C4F382240C5D23FA04F484609268B0
:10732800C2F342328A5CD340C36010BD00380240C9
:107338000024F40000127A0004000020044B1A6BA9
:1073480009B1104301E022EA00001863704700BF4A
:1073580000380240044B5A6B09B1104301E022EA9D
:1073680000005863704700BF00380240044B1A6C95
:1073780009B1104301E022EA00001864704700BF19
:1073880000380240044B5A6C09B1104301E022EA6C
:1073980000005864704700BF00380240044B1A6A66
:1073A80009B1104301E022EA00001862704700BFEB
:1073B80000380240044B5A6A09B1104301E022EA3E
:1073C80000005862704700BF003802404209012A95
:1073D800074B01D11B6803E0022A0CBF1B6F5B6FD0
:1073E80000F01F0023FA00F000F00100704700BF12
:1073F80000380240024A536F43F080735367704766
:107408000038024003884A8810B503F441540B88B9
:1074180013438A881343CA8813430A8913434A8942
:1074280013438A891343CA89134323439BB20380B6
:10743800838B23F400631B041B0C83830B8A038256
:1074480010BD038819B19BB243F0400303E023F059
:1074580040031B041B0C03807047808980B270476F
:1074680081817047090901238B409BB21AB1828838
:1074780092B2134303E0828892B222EA0303838024
:10748800704710B584880389012201F00F009BB270
:1074980002FA00F01840A4B205D009098A40144243
:1074A80014BF0120002010BD30B5048C24F0010465
:1074B8002404240C0484048B058CA4B2ADB224F0FB
:1074C800F304224325F00A0542EA031345F00105B7
:1074D8009AB229430283018430BD30B5048C24F06C
:1074E80010042404240C0484058B048C25F44075B2
:1074F800A4B22D052D0D24F0A00444F0100445EA93
:10750800022242EA033344EA01119BB28CB203839C
:10751800048430BD08B5474B984205D10120014687
:10752800FFF748FF01203DE0B0F1804F05D1012071
:107538000146FFF733FF012076E03F4B984205D123
:1075480002200121FFF72AFF02206DE03B4B984201
:1075580005D104200121FFF721FF042064E0384B06
:10756800984205D108200121FFF718FF08205BE0A9
:10757800344B984205D110200121FFF70FFF10204E
:1075880052E0314B984205D120200121FFF706FF38
:10759800202049E02D4B984209D102200121FFF714
:1075A80009FF02200021BDE80840FFF703BF284B70
:1075B800984207D14FF480300121FFF7FBFE4FF4CA
:1075C8008030EFE7234B984207D14FF40030012178
:1075D800FFF7F0FE4FF40030E4E71F4B984207D165
:1075E8004FF480200121FFF7E5FE4FF48020D9E712
:1075F8001A4B984205D140200121FFF7CFFE4020C9
:1076080012E0174B984205D180200121FFF7C6FEF2
:10761800802009E0134B98420BD14FF48070012170
:10762800FFF7BCFE4FF480700021BDE80840FFF76B
:10763800B5BE08BD0000014000040040000800403D
:10764800000C0040001000400014004000040140FD
:10765800004001400044014000480140001800403B
:10766800001C0040002000401C4A038890429BB246
:1076780012D002F5806290420ED0B0F1804F0BD04C
:10768800A2F58032904207D002F58062904203D082
:1076980002F58062904203D14A8823F070031343B5
:1076A8000F4A904208D002F5806290421FBF23F42F
:1076B80040730A899BB2134303804B68C3620B88EB
:1076C8000385064B984203D003F58063984201D1A5
:1076D8008B7A038601238382704700BF0000014034
:1076E800001000404FF0FF33436000230380038104
:1076F800438083727047018582827047038819B17D
:107708009BB243F0010303E023F001031B041B0CAD
:1077180003807047038C23F001031B041B0C0384B4
:10772800038C70B58488028B0E8822F073021204D1
:10773800120C23F0020516434B888A892D04134343
:107748000F4A2D0C2B439042A4B29BB203D002F5F2
:10775800806290420ED1CA894D8A23F008031343F0
:107768008A8823F0040313430A8A24F440741543D7
:107778002C43A4B2848006838A684263038470BD64
:1077880000000140038C23F010031B041B0C03842E
:10779800038C30B58588028B0C8822F4E6421204EB
:1077A800120C42EA042223F0200394B21B048A89B3
:1077B8001B0C43EA02134A8843EA0213124A904216
:1077C800ADB29BB203D002F58062904215D123F08E
:1077D8008003CA899BB243EA02124FF6BF73134073
:1077E8008A8843EA02130A8A25F4406545EA820535
:1077F8004A8A45EA82059BB2ADB2858004838A68CD
:107808008263038430BD00BF00000140038C23F471
:1078180080731B041B0C0384038C30B58488828B13
:107828000D8822F073021204120C23F4007315431E
:107838001B048A891B0C43EA02234A8843EA022371
:10784800124A9042A4B29BB203D002F580629042E1
:1078580015D123F40063CA899BB243EA02224FF68A
:10786800FF3313408A8843EA02230A8A24F44054E7
:1078780044EA02144A8A44EA02149BB2A4B28480FD
:1078880085838A68C263038430BD00BF000001405D
:10789800038C23F480531B041B0C0384038C30B526
:1078A8008488828B0D8822F4E6421204120C23F499
:1078B800005342EA05221B048D891B0C43EA053359
:1078C8004D8843EA05330B4DA842A4B292B29BB24D
:1078D80003D005F58065A84205D10D8A24F48044BB
:1078E80044EA8514A4B2848082838A68026403848B
:1078F80030BD00BF0000014041637047816370479D
:10790800C163704701647047038B23F008031B04AD
:107918001B0C194301837047038B23F400631B047A
:107928001B0C43EA012189B201837047838B23F042
:1079380008031B041B0C194381837047838B23F4B2
:1079480000631B041B0C43EA012189B28183704741
:1079580000230122038043808280C3800381704713
:10796800406B7047806B7047006C7047038B23F047
:107978000C031B041B0C0383038B9BB21943018369
:107988007047038B23F440631B041B0C0383038B96
:107998009BB243EA012189B201837047838B23F0AC
:1079A8000C031B041B0C8383838B9BB219438183B9
:1079B8007047838B23F440631B041B0C8383838BE6
:1079C8009BB243EA012189B2818370472DE9F041D6
:1079D80088460D88B8F804204988B8F80830044665
:1079E80045B9FFF761FD2046B8F80610BDE8F0413B
:1079F800FFF7BCBF042D08D1FFF76FFD2046B8F88C
:107A08000610BDE8F041FFF7BCBF082D058C1DD15D
:107A180025F480752D042D0C0584858B068CADB25C
:107A280025F0F305B6B245EA0315ADB226F4206693
:107A38002A4346EA0125ADB245F480758283058460
:107A4800B8F80610BDE8F041FFF7A8BF25F4805547
:107A58002D042D0C0584B0F81CE0068C2EF440771C
:107A680026F400553F056D043F0D6D0C47EA0227CB
:107A780045EA013547EA0333ADB245F480559BB278
:107A880083830584B8F80610BDE8F041FFF791BF7D
:107A9800B0F8443029B16FEA43436FEA53439BB2CD
:107AA80001E0C3F30E03A0F84430704783899BB20A
:107AB8000AB1194301E023EA010181817047038A71
:107AC800194214BF012000207047038A828911EAF5
:107AD800030092B203D0114214BF01200020704766
:107AE800C94389B20182704783899BB20AB119439D
:107AF80001E023EA01018181704700007FB5038A14
:107B0800CA889BB223F440531343038283890E46E9
:107B18009BB223F4B053098923F00C02B3880B43BA
:107B280071890B439BB213438381838AB2899BB2C9
:107B380023F440731343838204466846FFF7BAFB75
:107B48001A4B9C4203D003F580639C4201D1039DEC
:107B580000E0029DA38931681BB2002B4FF0190287
:107B680002FB05F2B4BF4D008D00B2FBF5F5A2890A
:107B78006426B5FBF6F00001010912B2002A06FBE3
:107B88001153ADBF1A01D90032313232B5BFB1FB42
:107B9800F6F2B2FBF6F302F0070203F00F03B4BFEC
:107BA8001043184380B2208104B070BD001001401A
:107BB800838919B19BB243F4005303E023F40053C3
:107BC8001B041B0C83817047C1F308018180704737
:107BD8008088C0F308007047838A9BB20AB11943B2
:107BE80001E023EA01018182704710B5C1F3421414
:107BF800012301F01F01012C03FA01F301D10C301C
:107C080003E0022C0CBF1030143012B10268134389
:107C180002E0026822EA0303036010BDC94389B287
:107C280001807047012310B5C1F3421401F01F020F
:107C38009C4203FA02F201D1838903E0022C0CBFB3
:107C4800038A838A9BB21340028892B23BB1090A25
:107C580001238B40134214BF0120002010BD184699
:107C680010BD090A01238B40DB439BB20380704798
:107C780040F0BF60024B40F40030D860704700BF4E
:107C880000ED00E0C278037810B512B3164AD16847
:107C98004278C943C1F30221C1F10404E4B2A2400D
:107CA800D4B20F220A4181780A40224303F160438B
:107CB80003F561431201D2B283F80023037801224D
:107CC800590903F01F0302FA03F3084A42F8213066
:107CD80010BD5A09012103F01F03994002F1200346
:107CE800024A42F8231010BD00ED00E000E100E078
:107CF80010B501F0030301F0FC0101F1804101F529
:107D08009C319B008C680F229A4024EA02028A6008
:107D18008A68984002438A6010BD08B505F0FCFAED
:107D280000F02CFDFDF732FB05F01EFB00200121C1
:107D380005F014FB0120014605F010FBFEE74FF4A7
:107D48004070FFF795BF08B5FEF7D2FEBDE80840C2
:107D580003F086B970471EF0040F0CBFEFF30880DC
:107D6800EFF3098000F002B8704700002DE9F84FE2
:107D7800D0F800B0D0F804A0D0F80890D0F80C8063
:107D8800076946698569C4692549264802F0AAFD3C
:107D9800254924485A4602F0A5FD2449214852465F
:107DA80002F0A0FD22491F484A4602F09BFD2149E6
:107DB8001C48424602F096FD1F491A483A4602F00E
:107DC80091FD1E491748324602F08CFD1C491548A2
:107DD8002A4602F087FD1B491248224602F082FD1E
:107DE800194B1A491A680F4802F07CFD184B1949BB
:107DF8001A680C4802F076FD174B18491A680948AA
:107E080002F070FD164B17491A68064802F06AFD21
:107E1800154B04481A68154902F064FDFEE700BFD7
:107E2800B9830108DDEE0008CF830108D883010873
:107E3800E1830108EA830108F3830108FD8301084F
:107E4800068401080F84010838ED00E01984010850
:107E580028ED00E0248401082CED00E02F840108BF
:107E680030ED00E03A8401083CED00E0458401086B
:107E7800FEE7FEE7FEE7704706F0CAB937B500240B
:107E88000E4D6846FFF760F92B681A59D2680092C0
:107E98001B5969469868FFF721F92B681B5900227E
:107EA8009868198AFFF768F92B681B590434186A0F
:107EB800FFF730FB102CE3D103B030BD106F00206A
:107EC8002DE9F0413F4F404D3B788AB0044613B14D
:107ED8002868FFF7D3FF2C6000242B681B59012169
:107EE8005868FFF72BFA2B681B590121D869FFF74F
:107EF8003DFA6846FFF728F902238DF804308DF81B
:107F080005302B681A5952698DF806201A59D2681B
:107F180000921B5969469868FFF7E0F82B681B59CF
:107F28009868198A1A7EFFF727F92B681A59D26AB6
:107F380003921A590026128EADF80820ADF8106089
:107F4800ADF80A608DF812601B5902A9186AFFF78C
:107F58008BFB6023ADF814304FF001082B68ADF8A7
:107F6800168007961A59928CADF820204FF480722B
:107F7800ADF824201B5905A9DA6B186A90472B68BD
:107F88001B5908211A6C186A90472B681B594146DF
:107F9800986AFEF725FF2B681B594146186A043476
:107FA800FFF776FD102C98D12B689B590121186A90
:107FB8000436FFF7A3FB102EF6D101233B700AB05D
:107FC800BDE8F081205D0020106F00200000000057
:107FD8002DE9F0472DED028B032882B005460C46AB
:107FE80004D93D483D49D72202F03EFB3C4B1A6874
:107FF80052F8252012789A46002A47D107EE104AEF
:10800800DFED387ABBEEC87A67EE277A17EE900A6A
:10801800FCF71AFA06460F4607F0A4FE2AA3D3E98E
:10802800002330463946B0EE408AFCF761FA324602
:108038003B46FCF75DFA26A3D3E900238046894630
:1080480030463946FCF754FA0B4602464946404644
:10805800FCF79CF8FCF70EFD07EE900A87EE880AFD
:10806800214BF7EE007AB4EE670AF1EE10FAC8BFBA
:10807800B0EE670ADFED1D7A20EE270ABCEEC00AD3
:108088008DED010ABDF8044043F82540DAF80030C8
:1080980053F825301A78012A01BF45F208214C43CC
:1080A8004FF6FF71B4FBF1F104BF01F5A4410831AB
:1080B8005A6B0BBF186A186A89B2210A02B0BDEC64
:1080C800028BBDE8F04710479FE3480CA77144BFF7
:1080D800BA490C022B87B63FE0840108F3840108F3
:1080E800106F002000007042105D002000FF7F47E5
:1080F80003282DE9FF410446884617461E4605DD3C
:10810800184819494FF4887202F0AEFA01A8FFF72F
:10811800E9FA164DB8F1000F08D00423144A92FB6F
:10812800F7F292B2ADF80430029209E02B6853F8E6
:108138002420D26A029253F824301B8EADF8043002
:108148002B6853F8243001A9186AFFF78DFA2B68B9
:1081580053F8243031465A6B186A904704B0BDE88A
:10816800F08100BFE0840108F3840108106F00204B
:108178000059000170B50024114B1B6853F82430D6
:108188001D78BDB90F4B53F824600F4B012133F80C
:108198001420304640F27573FFF7AAFF3220FDF72E
:1081A800B7FA304629462A462B46FFF7A1FF962004
:1081B800FDF7AEFA0134042CDED1044B187870BDFB
:1081C800106F00203485010894840108205D002088
:1081D8007320704700B589B0124B1B6868469B68CE
:1081E800984702460028F7D19DF801300E491B092F
:1081F80051F8230020B169461346FDF7C1FD03E09D
:108208000A4A1368013313609DF80130084A1B09B4
:1082180052F823100029DFD052F8233068469847D7
:10822800DAE700BF38000020245D0020645D0020EC
:10823800705D002010B588B00D4B0E4A1968914248
:108248001C4610D00C4B694618684FF0FF320023CB
:10825800FDF732FF0128EFD1236868465B6898472D
:108268000028F9D0E8E70A20FDF752FAE4E700BF52
:1082780038000020240000206C5D00207FB5114DDF
:108288002C78ECB9202122463C20FDF745FD0E4B09
:108298000E491860022696222346009601940294FD
:1082A80003940B48FCF782FF23460096019402943E
:1082B8000394084808499622FCF778FF01232B709D
:1082C80004B070BD685D00206C5D0020CC8501089D
:1082D8003D820008DD810008D4850108014B18782B
:1082E800704700BF685D002038B5094B53F820205F
:1082F80005461C4622B1074807495C2202F0B4F93A
:10830800012020210022FDF707FD44F8250038BD93
:10831800245D0020DC850108F385010870B50E4B4B
:1083280053F8202006460D461C4622B90B480C4936
:108338006C2202F099F925B90A4809496D2202F020
:1083480093F954F8260029464FF0FF320023BDE880
:108358007040FDF7B1BE00BF245D00200A86010809
:10836800F38501084E8B010808B5034B1868FDF723
:10837800A9FFC0F13C0008BD6C5D00201028DCBFDF
:10838800014B43F820107047705D002010B504467B
:1083980020B90B480B49B72202F066F923781E2B47
:1083A80004D909480749B82202F05EF9074B0022B0
:1083B800186821461346BDE81040FDF7E1BC00BF30
:1083C8004E8B0108F3850108198601086C5D0020B1
:1083D80008B5064B00211868FDF75EFC044B1B68C6
:1083E8001B6903B19847002008BD00BF6C5D0020E1
:1083F80038000020034B1B68DB6803B118470120D5
:10840800704700BF3800002070B5094C2368054646
:1084180013B11B68002098470DB1256001E0054B9A
:108428002360236801201B68BDE87040184700BF1F
:10843800380000202400002038B50C4C4FF0FF33E2
:108448000021054644F8203004F088FF084A282314
:1084580003FB0522002352F82310013102D044F80F
:10846800253038BD01330A2BF5D138BD7C5E00209C
:10847800B05D00202DE9F74F8046FEF75BF92C4BE5
:108488001B78002B50D0C5B22A4B53F82530581C06
:108498004AD00A2606FB0536DFF8A490264A59F882
:1084A800264052F823B0254F0021631C0BEBC40A69
:1084B80049F8263038680B464FF0FF32FDF7FCFDCF
:1084C800DAF80430991C08D05A1C0AD1284649F811
:1084D80026300024FFF7B0FF1EE0002449F82640AC
:1084E8001AE01BF83410284604F038FFDAF80420A4
:1084F800002482B12346042100944046FDF7CEFFB4
:10850800FCF78EFF00940246234640460121FDF702
:10851800C5FF012400E01446002138680A460B46CE
:10852800FDF72EFC002CAFD003B0BDE8F08F00BFE4
:10853800785E00207C5E002038860108A45E00205A
:10854800B05D002037B51E4B1C781D46ACBB04F04F
:108558000BFF23461B4A4FF0FF3142F823101A49FC
:10856800282202FB031100224FF0FF3041F82200BD
:1085780001320A2AF8D10133052BEBD10024134B21
:108588000093134823464FF47A710022FDF75EFFEB
:10859800104B43F824000134052CF0D103220120AC
:1085A8000021FDF7B9FB0C4A106020B100210A46F2
:1085B8000B46FDF7E5FB01232B7003B030BD00BF70
:1085C800795E00207C5E0020B05D00207D8400087C
:1085D80030870108905E0020A45E002010B5044B8F
:1085E8001C7804F0F7FE034B01221A70204010BDDE
:1085F800795E0020785E0020F8B505460024174B08
:1086080053F824308B4223D1154F00210B464FF0ED
:10861800FF323868FDF750FD0A2303FB0543114A72
:108628000026284642F82360FFF706FF33463868DD
:1086380031463246FDF7A4FB0B4B53F82530A342D5
:108648000AD10A4B53F82500BDE8F840FFF712BFDE
:1086580001340A2CD3D1F8BDF8BD00BF3886010813
:10866800A45E0020B05D00207C5E0020905E0020AB
:108678004160C2607047000070B505460024144B85
:1086880053F824308B421FD1124E00210B4630681C
:108698004FF0FF32FDF710FD0A2303FB05440E4B94
:1086A8004FF0FF32284643F82420FFF7C5FE00218B
:1086B80030680B460A46FDF763FB084B53F8250064
:1086C800BDE87040FFF7D6BE01340A2CD7D170BD83
:1086D80038860108A45E0020B05D0020905E00206E
:1086E80008B54FF05F0383F31188BFF36F8FBFF3B3
:1086F8004F8F0649064802F0F5F80220012104F0E0
:108708002DFE0420012104F029FEFEE77C870108E4
:10871800318B000808B54FF05F0383F31188BFF36E
:108728006F8FBFF34F8F0649064802F0DBF802202F
:10873800012104F013FE0420012104F00FFEFEE7DE
:108748008D870108318B00087047012070470000B1
:10875800024B1B680BB11B6818477047A85E0020C6
:10876800024B1B680BB15B6818477047A85E002076
:10877800014B1860704700BFA85E00201FB5022398
:1087880000930023019302930393044904484FF490
:108798009672FCF70BFD05B05DF804FB9F87010896
:1087A800D188000873B5274C2578002D48D10120C1
:1087B800FDF7AEFB244B254E18604FF0FF322B46D9
:1087C8002946FDF779FC06F095FDFFF757FD00F007
:1087D80069F91F491F4802F085F81F491D4802F032
:1087E80081F81E491E4B0D681E4836781E491A68C6
:1087F8001E4B002E18BF01461B68164801910095B4
:108808001B4902F06FF81B4B1B491B6800931B4B5D
:108818001048B3F900300193194B1A68043B1B68E0
:1088280002F060F80BF040FC01F0C8FE09F070FEA1
:10883800FFF788FE07F06AFAFFF786FF0123237027
:1088480002B070BDB45E0020146F0020498C01088E
:10885800B5870108318B0008D8870108FC00002083
:1088680000010020A6870108AF870108F800002052
:10887800FF870108107AFF1F19880108227AFF1F55
:10888800187AFF1F38B5084B1C78FFF7A7FE054676
:1088980007F062FA2840044001F09CFE0440FFF70C
:1088A80054FF204038BD00BFB45E002008B5054B1A
:1088B800002118680A460B46FDF762FABDE8084031
:1088C80006F050BB146F002038B504F04DFD0121AF
:1088D800002004F043FDFFF765FF00F0A1F800F069
:1088E800E5FC01F061FA09F0D3FA09F02BFA00F07F
:1088F80091FCFFF7C7FF04460BF082FC2040C4B28E
:1089080000F0A8F8044000F0F7FC044001F0F8F982
:10891800044009F0DBFA044009F03EFA044000F094
:108928009BFC04401F4D06F007FB84B178B101247D
:108938002C70FFF7BBFF062009F034FA04201A490F
:10894800FFF75AFE20461949FFF756FE1CE00023A0
:108958002B70FFF797FF88B104201449FFF74CFEEE
:108968004FF4FA60FCF7D4FE2B78002BF4D01049B2
:10897800104801F0B7FFFFF799FF05E004F0F4FC99
:108988000420012104F0EAFCFDF7ECFF0A49024645
:10899800084801F0A7FF01F025FE4FF0FF30FCF773
:1089A800B7FEFAE7AC5E002064870108B8860108C4
:1089B80047880108318B00085B88010810B50B4B0C
:1089C8001B781BB90220FCF7A3FEF8E7084C00212E
:1089D8000B4620684FF0FF32FDF76EFB0021206840
:1089E8000A460B46BDE81040FDF7CAB9B45E002040
:1089F800146F0020014B1870704700BFB55E00204F
:108A080008B5FCF70DFD054A1368C31A502B02D9A7
:108A18001060FEF73FFC30BF08BD00BFB05E00200D
:108A280010B50B4C23788BB906F000F807F024FC3E
:108A380007F08CFCFFF7E8FC00F0FCF809F0A2F85E
:108A480001F0D8FC00F028F90123237010BD00BF05
:108A5800B65E002038B50B4B1C7807F0D5FB0546F1
:108A6800FFF73CFC2840044000F0F4F8044009F00B
:108A780099F8044000F034F8044000F053F920401D
:108A880038BD00BFB65E002010B5054C2046FFF784
:108A98007DFC01284FF000030CBF2370184610BD61
:108AA800186F002038B50B4B1C781D468CB90A4B43
:108AB8000322012021461C705C70FDF72DF9074A3E
:108AC800106020B1214622462346FDF759F90123BB
:108AD8002B7038BDBC5E0020186F0020B85E0020E7
:108AE800014B1878704700BFBC5E002037B50C4CAE
:108AF80005460021206801AAFDF79EFB01280CD13C
:108B0800084A206813781D2B9EBFD11801338D7039
:108B180001A998BF1370FDF77FFA284603B030BD4E
:108B2800B85E0020186F002070B5214B5968214BA2
:108B38001B780646002B39D0C1F3080119B1BDE8EE
:108B48007040FFF7D3BF1C4D4FF0FF3228680B462B
:108B5800FDF7B2FA012827D1184C23781D2B04D928
:108B6800FFF702FC012817D109E0E2180133DBB254
:108B78000A2E96702370F3D01E2BF1D00EE02078C9
:108B880000231A18002A07DD0D49194422440979DF
:108B98009170013B5A1DF4D1FFF776FF0021286838
:108BA8000A460B46FDF7ECF8F0B270BD184670BDEA
:108BB80000ED00E0BC5E0020B85E0020186F0020C9
:108BC800C1880108002343608360C3600361074BC9
:108BD800C362074B80ED000AC0ED050A80ED061A56
:108BE800C0ED071A036380ED0D2A704700409C45CD
:108BF80000409CC580ED0B0A7047000038B54378EB
:108C080013F0030305460FD0012B00D038BD0446EE
:108C18001E2204F8022B002120460EF030FF2046C9
:108C280003490EF034FF2846BDE83840FFF7AEBBD5
:108C3800C688010810B5054C23782BB90F200449C4
:108C4800FFF79CFB0123237010BD00BFBD5E002011
:108C5800058C0008014B1878704700BFBD5E0020E6
:108C680030B50B4B1C680B4B00221D681346A34202
:108C780009DA0C2159436956002902DB824205D0E2
:108C880001320133F3E74FF0FF3030BD184630BDF5
:108C9800D05E0020C85E0020F0B5184D2C7885B055
:108CA8004CBB17481749184B184E194F3060091A12
:108CB8008A1053433B6001F023FE164A164B3F6867
:108CC8003668116818602346BB4207DA0C205843FF
:108CD800013330560028A8BF0131F5E700230124ED
:108CE80011600E4800940193029303930C49962255
:108CF800FCF75CFA2C7005B0F0BD00BFCC5E00201C
:108D08006CB10108C8B50108ABAAAAAAC85E0020C0
:108D1800D05E0020C05E0020C45E0020558E000892
:108D2800D9880108014B1878704700BFCC5E002035
:108D38002DE9F84318B101281ED0BDE8F883394B56
:108D4800394F3A4C1D683B6894F803E0384E0433B9
:108D58000246AA425BDA13F8041C11F0800F03D014
:108D6800C90705D51E6804E0704513D0013000E03E
:108D78002F4E01320C33ECE72C4B20225A7006227E
:108D88001A702C4A98701268DA702B4A106858606A
:108D9800184643E0202363704FF00C08002308FBBB
:108DA80002F8A3703B68E07003EB0809304613F83B
:108DB800083023710EF073FE0546D9F804000EF052
:108DC8006EFE28440530C0B21E28207004D91B4806
:108DD8001B49C72201F048FC30460EF060FE3146C0
:108DE800421C18480EF040FE30460EF058FE3B6814
:108DF80098440546D8F8046030460EF050FE2C44DE
:108E0800421C3146A01D0EF02FFE0F4806E020231D
:108E180063700023A370054801232370BDE8F8435D
:108E2800FFF7B4BAD05E0020C85E0020386F00207B
:108E3800A4AA0108C05E0020C45E0020DF880108E3
:108E4800FC8801083D6F0020386F00202DE9F74F9E
:108E58000220FFF749FA804C02202146FFF75EFA0C
:108E68006678A57816F00306274603D12846FFF74B
:108E78005FFFF0E7012E30D12846FFF7F1FE00280A
:108E880005DAFF23A3700223E570237130E00C2379
:108E98005843724B1B681A5C191802F00302022A25
:108EA8008B680CD0032A0FD0012A15BF1B781B88AA
:108EB800E370A4F8033014BF022303230BE01B68FC
:108EC800C4F80330052306E01A68C4F803205A687A
:108ED800C4F80720092323702EE0022E2ED128463D
:108EE800FFF7BEFE002807DAFF23A370E57026719E
:108EF8000323237020469CE00C235843574B1B68E0
:108F08001A181B5C5906A6D403F00303022B9268B7
:108F180009D0032B0BD0012B15BFE378B4F803302D
:108F28001370138008E0D4F80330136004E054F899
:108F3800031F636882E80A0047487AE0002D8AD157
:108F48002B46FA18927802B9013501331E2BF8D155
:108F5800012D7EDD42480EF0A2FD07EB000808F166
:108F68000408814640460EF09AFD00EB0903009381
:108F7800FB18DFF8F8905E793A4B1B680193374B82
:108F8800D3F800A04FF0000B5546019B9B4518DA1B
:108F980029780A0604D5CB070DD5D5F804900CE03E
:108FA80068684146FCF788F838B948462C49FCF708
:108FB80083F810B907E0DFF8B4900BF1010B0C351A
:108FC800E3E7022520E00C2303FB0BF30AEB030283
:108FD8001AF803309E423AD106F0400303F0FF0529
:108FE800002B32D1009B9168043306F003063B4402
:108FF800022E03F102001FD0032E21D0012E15BF2F
:109008009B785B880B700B8015480EF048FD064670
:1090180040460EF044FD37443844457110480EF080
:109028003EFD054640460EF03AFD284404302070C7
:109038000D48FFF7ABF90EE7D3F802300B60E3E712
:10904800D0E90023C1E90023DEE70D25DCE716257A
:10905800DAE703B0BDE8F08F386F0020C85E002063
:109068003B6F0020D05E0020386F0020A4AA0108C2
:1090780007B50420FFF738F9604C04202146FFF7B4
:109088004DF9627802F00302012A23464CD0022AE5
:1090980000F08280002AEFD1A378012B02D0022BA6
:1090A8000BD0E9E7A370564B40221B78627002226E
:1090B80013442270E37020469CE0E078237040223D
:1090C8006270A37020B920714E4B41F6FF7205E023
:1090D800012810D1102323714A4B18221A604A4ADA
:1090E80018681368C4F809305368C4F80D30C4F818
:1090F80005000F237CE0454D0238C0B2294607F031
:10910800CFF9002875D03F4A7021012311601068FB
:1091180023712A682378C4F809206A68C4F805000E
:10912800C4F80D200D3363E0D4F80300A278019051
:1091380041216170E579019962B96A18B2F5005F59
:1091480020D204F1080089B22A4605F05BFBC8B1B9
:10915800002318E0012A0AD16A18182A12D82C4BC1
:1091680004F1080019442A460EF07EFCEFE768185F
:10917800702807D8901E89B22A460833C0B207F073
:10918800BBF9E4E705231D4AE37113B906351570E9
:109198002FE0062313702CE0D4F803002278019006
:1091A8004221053A6170A5780199D2B2501845B9A3
:1091B800B0F5005F19D2E01D89B205F03BFBA0B104
:1091C80008E0012D08D1182804D811480844E11DE9
:1091D8000EF04AFC002309E0702806D8A81E89B2C0
:1091E8000733C0B207F0ECF9E9E70523E37106237A
:1091F80023700248FFF7CAF83EE700BFDC5E002094
:10920800015F0020FC5E002018890108D45E002060
:10921800547B002030B50C4D2C7885B08CB90B48A8
:1092280007F01CF9003018BF0120012328708DE8D1
:109238001800029403940648064996222346FBF731
:10924800B5FF05B030BD00BF005F0020015F002002
:109258007990000814890108014B1878704700BFFD
:10926800005F002038B50F4C227F0E2382F00102E8
:10927800811C03FB02430E3051F8045B43F8045B86
:109288008142F9D1098819802277FCF7C9F8237F30
:1092980020620E2202FB0344A3890BB9024A137011
:1092A80038BD00BF385F0020325F002010B50B4C7E
:1092B800237893B9FEF7E2FF03200949FFF75EF828
:1092C800084B094A1A60FCF7ABF8084B084A1860C3
:1092D80001231370074A2370137010BD335F0020F9
:1092E8006D9200082C5F0020385F0020345F00205A
:1092F800285F0020325F002008B5FEF7EFFF014B22
:10930800187808BD335F002038B50F4C227F0E2334
:1093180082F0010203FB024300F10C0150F8045BE8
:1093280043F8045B8842F9D1018819802277FCF759
:1093380077F8237F20620E2202FB0344A3890BB92E
:10934800024A137038BD00BF045F0020325F00205E
:1093580008B5FCF765F8024B1B68C01A08BD00BFCA
:10936800345F002010B5394C2378002B6DD19FED68
:10937800380A3848DFED380A9FED382AB0EE401A2F
:10938800F0EE401AFFF71EFC9FED310A3448DFED7E
:10939800320A9FED322AB0EE401AF0EE401AFFF77B
:1093A80011FC9FED2B0ADFED2C0A9FED2E1A9FED85
:1093B8002B2A2D48F0EE401AFFF704FC25489FEDB4
:1093C8002B0AFFF717FC26489FED280AFFF712FC27
:1093D80025489FED270AFFF70DFC9FED1D0A25483C
:1093E8009FED1E2AF0EE401AF0EE0C0AB0EE001ABD
:1093F800FFF7E8FB9FED160A1F489FED182AF0EECD
:10940800401AF0EE0C0AB0EE001AFFF7DBFBF2EEA2
:10941800040AB7EE001ADFED191A9FED102A184852
:109428009FED0B0AFFF7CEFB1248B3EE040AFFF7D5
:10943800E1FB1148B3EE040AFFF7DCFB10489FED8F
:10944800110AFFF7D7FB0123237010BD5D5F0020D1
:10945800000000004070002000008C426F12033BA7
:10946800D06F00209A998541946F002033330542CC
:1094780033B32643586F0020087000203333B33EBF
:10948800787000200000B443014B1878704700BF83
:109498005D5F0020024B1A780AB901221A707047E2
:1094A800705F0020014B1878704700BF705F002084
:1094B800F0B5DFED9B7A9FED9B7A9B489B4A9C4CCD
:1094C8009C4920EE270A60EEA70A21EE271AF5EE3E
:1094D800401AF1EE10FA80EE070A80EE876A81EEF4
:1094E800071A2DED028BB6EE005AB7EE087A0AD1AC
:1094F800B5EE402AF1EE10FA05D1F5EE402AF1EE6C
:1095080010FA00F0818062EE027A92ED004AD4ED02
:10951800003AD1ED004A884F884EE1EEA17A002545
:10952800E2EEA27A17EE903A5B10C3F1BE4303F560
:109538005D1303F5CE531F3306EE903A67EE857A36
:1095480005EE903A66EEE77AF0EE476AE7EEA56A2E
:109558007B4BF0EE667A65EEA77AD0ED006A64EE92
:10956800E35A64EE844AE6EE845AE3EEA64AFEEE37
:10957800006AE3EEA36A61EEA70A22EE278AE4EE08
:10958800046A62EEA77A24EEE74AA8EE264A66EE57
:10959800E06AE7EEA56AF0EE667A65EEC86AD3ED92
:1095A800005A684BF5EEC05AF1EE10FAE0EEA46AE4
:1095B8001EDD65EE844AD7ED000AD6ED003AE4EEEA
:1095C800830A65EEA74A65EEA65AE4EE833AD3ED20
:1095D800004AC7ED000AE5EE834AC6ED003AC3ED3E
:1095E800004A30EE200A36EE236A31EE241A02E0F1
:1095F8003D6035601D60544BD3ED005AA5EE840ADA
:10960800A5EEA76AA5EEA61A23EE053A91ED004A43
:10961800D4ED003AD2ED005A21EE031A20EE030AE7
:1096280064EE017A66EE030AE3EE807A90ED006A52
:1096380060EEC44AF1EE656AE6EE404AE6EEA07ACC
:10964800E6EE814A76EE277A61EE466A26EE206AD1
:10965800E3EEA06AA3EE816A73EEA44AA4EE406A20
:10966800E5EE806A35EE866A67EEA75A74EE266ADA
:10967800E4EEA45AE6EEA65AE6EE065A15EE903A3D
:109688005B10C3F1BE4303F55D1303F5CE531F33DF
:1096980065EE855A05EE103A65EE655A2B4BA5EE38
:1096A800857A25EE077A64EE875A67EE877A66EE42
:1096B800876A26EE077A26EEE56A26EE875AA7EE2F
:1096C800876AA5EEA75AC0ED007A67EEE77A36EE0C
:1096D800066AE5EEA57A83ED006AE6EEE67A1C4BAB
:1096E80035EE055AE7EE077A83ED005A194B82EDFD
:1096F800007AC3ED007A184BC4ED005A1A78C1ED10
:10970800006A52B922EE052A144AA1EE862AA2EE70
:10971800A72A82ED002A01221A70BDEC028BF0BD47
:10972800DB0F494000003443745F00207C5F002059
:1097380070000020785F0020805F0020845F002098
:1097480074000020605F002078000020645F002023
:10975800685F00206C5F0020715F00207C000020A3
:1097680070B52DED068B2F4BD3ED008A2E4BF7EEFF
:10977800007A93ED00AA2D4BF4EEE78AF1EE10FA89
:1097880004460D461646D3ED009A09DCFFEE007A32
:10979800F4EE678AF1EE10FA48BFF0EE678A01E04E
:1097A800F0EE678A224B9FED238AD3ED006A224BA5
:1097B8009FED229AD3ED007A214BD3ED000A214B7D
:1097C80093ED007A20EE870A60EEA00AA6EEA70ABB
:1097D800E6EEA60A30EE000AE7EE470AE7EEE70AE9
:1097E8000BF086F920EE080A80EE090A86ED000AD9
:1097F800B0EE680A0BF01EF920EE080AF0EE690ACE
:1098080080EE090A85ED000AB0EE4A0A0BF070F9FD
:1098180020EE080A80EE090ABDEC068B84ED000AEA
:1098280070BD00BF645F0020685F00206C5F00208F
:1098380070000020000034437C5F0020DB0F4940AB
:10984800745F0020785F002007B500230193FFF7BD
:10985800B5F8FBF7E5FD0090019B0BB9012300E08B
:109868000023684642F210710193FBF7EFFE044BA8
:1098780001A918680A220023FCF782FAECE700BF66
:10988800B070002013B5FFF799F8FBF7C9FD0190F8
:109898000C4C002120680A220B46FCF70DFC58B13D
:1098A800094B2068002200211A605A609A60DA6029
:1098B8000A460B46FCF764FA01A84FF4FA61FBF775
:1098C800C5FEE5E7C85F0020046000200000000036
:1098D800F0B52DED048B002083B00321FBF758FF72
:1098E800FFF76CF8FBF79CFD0190DB4DDB4C01A802
:1098F8000221FBF7ABFE28462146D94A06F0ACF90F
:1099080006F0A4F90028F0D0D64FD74ED4ED001AAF
:1099180094ED012AD4ED022A95ED000AD5ED010A4D
:1099280095ED021A9FEDD13AD14CDFEDD29AFFF7AF
:10993800BFFD38463146D04AFFF712FFD5ED007A11
:109948003B686360F1EE677A3368A360C4ED057A1B
:10995800CA4BD5ED017A1868C4ED009AF1EE677A22
:1099680069460A220023C4ED039AC4ED049AC4EDA3
:10997800067AC4ED079AFCF79FFB40B1C049C1487D
:1099880000F0B0FFBF48C049009A00F0ABFFBF4EDF
:10999800BF4D306800210A220B46FCF78DFB0028DA
:1099A80048D0B749B74800F09DFFBA49B54800F01C
:1099B80099FFB94B9FEDB94AD3ED017AD3ED004A2F
:1099C800DFEDB73A93ED025ADFEDB65A93ED036A2D
:1099D8009FEDB53A306827EE847A67EEA37AF0EE09
:1099E800476AE4EEA36A00210A46A4EE847A0B468D
:1099F800E5EE256AA5EE257AE6EE036AC5ED006A6E
:109A0800F0EE676AE4EEA36AE4EE847AE5EE256A8E
:109A1800E5EE257ADFEDA53AE6EE037AE6EE236A6F
:109A2800A6EE237AC5ED016AC5ED027A85ED037AC3
:109A3800FCF7A6F9DFED9E1ADFED9E2A94ED018A68
:109A480094ED000A9FED9C4A94ED023AD4ED033A56
:109A5800DFED9A0AD4ED044A9FED995AD4ED055AE0
:109A68009FED982ADFED986A94ED066A9FED971AA4
:109A780094ED077A964B974C974F68EE218A28EE1B
:109A8800228AE0EE048AA0EE048AF0EE687AB0EE4C
:109A9800489AE3EE227AE3EE218AA3EE219AA3EE16
:109AA800228AE3EEA07AE3EE848AA3EEA09AA3EEDC
:109AB800848AE4EE857AE4EE858AA4EE859AA4EE9B
:109AC800858AE5EE827AE5EE828AA5EEA69AA5EE6B
